:020000040800F2
:10000000980A002071370008950700089707000834
:100010009B0700089F070008A307000800000000D6
:10002000000000000000000000000000A70700081A
:10003000A907000800000000AB070008AD07000892
:100040008B3700088B3700088B3700088B37000888
:100050008B3700088B3700088B3700087D0E0008AF
:10006000950E00089F0E00088B3700088B3700089C
:100070008B3700088B3700088B3700088B37000858
:100080008B3700088B3700088B3700088B37000848
:100090008B3700088B3700088B370008C50E000827
:1000A0008B3700088B3700088B3700088B37000828
:1000B0008B37000893350008D73600088B370008C7
:1000C0008B3700088B3700088B3700088B37000808
:1000D0008B370008D52F00089D310008F332000847
:1000E0008D0F00088B3700088B3700088B3700080E
:1000F0008B3700088B3700088B3700088B370008D8
:100100008B3700088B3700088B3700088B370008C7
:10011000FD3300088B3700088B3700088B37000849
:100120008B3700088B3700088B3700088B370008A7
:10013000DFF80CD005F01CFD004800472F03000835
:10014000980A002010B504460120FE4908602046A8
:1001500002F0A3FE0020FC49C1F89801204602F0FD
:100160009CFE10BD70B50446F8480078844267D004
:10017000F64803782246F6A1F94805F0A7FDF848AD
:1001800003F0ABF9F1480470E01E062856D2DFE810
:1001900000F010033024454442F6E063F1A2F2A1DE
:1001A000F54800F0D2FF6422F4A1F34802F059FFB1
:1001B00045E002F030FF1E21F14805F0B2F8F1A150
:1001C000EF4805F0DEF8EE4805F0D4F8C5B22A464F
:1001D000EB49F24802F028FF31E0F14BE1A2E2A145
:1001E000E54800F0B2FF6422E4A1E34802F039FFE1
:1001F00025E002F010FF1E21E14805F092F8E1A190
:10020000DF4805F0BEF8DE4805F0B4F8C5B22A466E
:10021000DB49E24802F008FF11E010E00120C94983
:100220000860642002F039FE0020C749C1F8980137
:10023000642002F032FE02F097FB00E000BF00BF36
:10024000002470BD10B563E0D649097801EB810147
:10025000C822A2EB810188B200F01CFCD1480178D1
:100260000078401CCF4A1070082951D10120114656
:1002700008700CE04FF4FA7002F00FFEC9480078E5
:1002800000F0CEFCC7480078401CC6490870C5483D
:1002900000780528EEDD4FF4FA7002F0FEFD012033
:1002A000A8490860C049C1F8B401642002F0F5FD16
:1002B0000020BE490860A449C1F898014FF4FA70C3
:1002C00002F0EBFD01209F490860B749C1F8B80171
:1002D000642002F0E2FD0020B449091D08609A493B
:1002E000C1F898014FF4FA7002F0D7FD012095494A
:1002F00008609549C1F894014FF4FA7002F0CDFD01
:1003000000209049091F08608F49C1F8980106E054
:100310004FF48071A64803F030FB002894D000BF52
:10032000A048007810B9C82000F0B4FB10BD86B01A
:100330000020059002F074FD00F050FE00F028FB54
:1003400000F04EFB00F063FB00F07AFB02F0DAFBFA
:1003500000F0B8FBFFF776FF4FF4A06003F09EFFBC
:1003600041F61F4142F20F7003F0E6F8002140F21F
:10037000833003F0BBF902F032FD02F0BBFD4FF415
:10038000165002F0DAFD4FF4165002F0E1FF4FF480
:10039000E13003F063F887A003F09FF800F05EFC03
:1003A000C82002F07AFD00F03FFEC82002F075FD83
:1003B00084480188844804F0A9FE40F27121062097
:1003C00002F08AFB02F0D0FA4FF4165002F092FECF
:1003D00000207449087007E0642000F05BFB71485E
:1003E0000078401C6F4908706E4800780328F3DBE2
:1003F00098E102F072F975480078FFF7B3FE74488F
:100400000078002867D07348007878B9724800787F
:100410007249097890FBF1F201FB120000285AD1D1
:100420006F4800786C490978884254D06A4800784F
:100430006B4908706B496C4802F0A5FC6548007870
:1004400010B300206349087068480088182190FBA9
:10045000F1F201FB12046548008890FBF1F5614858
:100460000078614909785C4A1278614B1B78CDE9C4
:100470000032CDE9021023462A465EA1384805F035
:1004800025FC374803F029F857480078282803DC72
:100490005448007832280EDD62480078D0B962A056
:1004A00003F01BF80120414908603F49C1F8B80139
:1004B0005C4908700EE05B48007801280AD15EA014
:1004C00003F00BF80020394908603749C1F8B8013A
:1004D0005449087000BF5C480078F8B100205A49C0
:1004E00008705A48007890B15948007810B908202F
:1004F0005749087055480078BDF8141088420DD04F
:100500005248007805901420FFF71CFE06E0504882
:100510000078082802D100204D4908704D48007825
:1005200000280ED04C48007850B13220FFF70AFE68
:100530004FF4C87002F0B1FC0020474908708DE00C
:1005400090E0EFE0988121420080214224000020C9
:100550004B65793A25642C2054656D703A2564000A
:100560005C0200204D312000403139393A4D6F7422
:100570006F723A52756E3A00C602002030000000D9
:100580003E030020403139393A4D6F746F723A4C56
:1005900053746F703A4D310D0A000000003801406D
:1005A00020D1FFFF2300002000002242B40122429C
:1005B0000010014053797374656D20537461727437
:1005C000000000001C000020000800401000002077
:1005D0000C00002020000020150000201400002046
:1005E0001A00002013000020120000201800002034
:1005F00016000020557074696D653A256444617970
:10060000202564486F75722025644D696E2025642D
:100610005365632C543D25646465672C483D25640F
:10062000252500002100002046414E73205475729C
:100630006E204F6E0000000046414E7320547572CC
:100640006E204F6666000000200100201E01002081
:100650001C010020110000202200002032A002F026
:100660003CFF5CE03848007800F0400018B14420BE
:100670003649887014E03448007800F0800018B1E2
:100680005520324988700BE02F48007800F01000A8
:1006900018B122202D49887002E0EE202B49887085
:1006A00000202A4948712A480078542803D10020A4
:1006B0002849087007E026480078502803DA00F03F
:1006C00011FD244908702148807800902048037863
:1006D0002048027820A12D4805F0F8FA2B4802F0B6
:1006E000FCFE1C48007819498871084600790A46C2
:1006F000D27800EB022081B2144800F05FFD13496C
:10070000C8710922224802F080FD0F48007800F0ED
:10071000400020B10F48007808B901F07CFC0020AF
:100720000B49087065E60000426C6F636B204C6FEC
:10073000636B20536967696E616C20666F72203548
:1007400030306D73000000001C010020C10100204A
:10075000110000203E0000205265706F7274204C22
:100760006F636B205374617475733A25782C204C39
:100770006F636B5F416374696F6E5F466C61673A6C
:1007800025782C207461736B3A2578005C02002078
:1007900000440040704700BFFEE700BFFEE700BF17
:1007A000FEE700BFFEE770477047704770470000E4
:1007B0000CB50020019000906C48006840F4803037
:1007C0006A49086000BF6948006800F40030009082
:1007D0000198401C0190009818B90198B0F5A06FDD
:1007E000F1D16248006800F4003010B1012000909F
:1007F00001E0002000900098012843D15C48006887
:1008000040F010005A4908600846006820F00300D4
:1008100008600846006840F00200086053484068DD
:10082000524948600846406848600846406840F4BD
:10083000806048600846406820F47C1048600846A4
:10084000406840F4E81048600846006840F0807056
:10085000086000BF4548006800F000700028F9D02B
:100860004248406820F0030040494860084640681C
:1008700040F00200486000BF3C48406800F00C00B7
:100880000828F9D10CBD10B5FFF792FF10BD10B5C7
:100890003648006840F00100344908600846406866
:1008A00034490840314948600846006832490840E8
:1008B0002E4908600846006820F480200860084639
:1008C000406820F4FE0048604FF41F008860FFF786
:1008D000DAFF4FF000602949086010BD10B5002113
:1008E00000200022214B5B6803F00C0121B1042998
:1008F00006D0082928D107E0214B224C236027E0AD
:100900001F4B204C236023E0184B5B6803F47010EE
:10091000164B5B6803F48032022303EB904022B94C
:10092000194B4343174C23600DE0104B5B6803F4F5
:10093000003323B1144B4343124C236003E0104BAC
:100940004343104C236003E00D4B0E4C236000BF6B
:1009500000BF064B5B68C3F303130C4CE15C094B0F
:100960001B68CB40074C236010BD00000010024004
:10097000002002400000FFF8FFFFF6FE08ED00E057
:1009800000127A002800002000093D002C00002001
:1009900008B50121182003F019FA0220ADF8000073
:1009A00010208DF8030003208DF8020069464148AD
:1009B00002F050FF8020ADF8000010208DF80300F9
:1009C00003208DF8020069463B4802F043FF0221F4
:1009D000384802F0EEFF8021374802F0EAFF08BDF8
:1009E00008B50121082003F0F1F94020ADF800001E
:1009F00010208DF8030003208DF8020069462E4870
:100A000002F028FF40212C4802F0D3FF08BD08B5B2
:100A10000121102003F0DAF94FF4C040ADF80000D6
:100A200010208DF8030003208DF80200694621484C
:100A300002F010FF4FF4C0411E4802F0BAFF08BD9B
:100A400008B50121102003F0C1F92020ADF8000005
:100A500010208DF8030003208DF802006946164827
:100A600002F0F8FE2021144802F0A3FF08BD08B5EB
:100A70000121102003F0AAF90420ADF8000048205D
:100A80008DF8030003208DF802006946094802F042
:100A9000E1FE08BD10B50446012008490860204663
:100AA00002F0FBF900200649C1F89801204602F047
:100AB000F4F910BD00100140000C01409881214262
:100AC0000080214208B501211C2003F07FF94FF47A
:100AD0008850ADF8000010208DF8030003208DF839
:100AE00002006946534802F0B5FE45F20100ADF838
:100AF000000010208DF8030069464F4802F0AAFE5E
:100B00001020ADF800008DF8030069464B4802F054
:100B1000A1FE4FF48851474802F04BFF45F2010116
:100B2000454802F046FF1021444802F042FF08BD4C
:100B300008B501211C2003F049F94AF20200ADF882
:100B4000000048208DF8030069463B4802F082FE11
:100B50004FF40870ADF8000048208DF80300694696
:100B6000364802F077FE08BD10B50446012034492E
:100B700008603449C1F8B001042C21D004DC012CF8
:100B800007D0022C3FD10FE0082C25D0102C3AD1F1
:100B90002EE001202C490860962002F07EF900200A
:100BA0002A49C1F890012FE0012025491839086031
:100BB000962002F072F900202549C1F8800123E057
:100BC00001201F4918310860962002F066F90020C4
:100BD0001F49C1F8B00117E0012019492031086010
:100BE000962002F05AF900201949C1F8B8010BE02B
:100BF000012018490860962002F04FF900201149A1
:100C0000C1F8A00100E000BF00BF00201149103171
:100C100008600F49C1F8980101200F49087010BD04
:100C200010B50446611E01228A40D0B2FFF79CFF36
:100C300010BD000000080140000C01400010014000
:100C4000988121420000214290012242000022426C
:100C500000802142A0012142200000201FB5012177
:100C60001C2003F0B3F80121084603F0AFF840F66A
:100C7000C100ADF8000048208DF8030003208DF876
:100C800002006946CD4802F0E5FD4AF20200ADF8E7
:100C9000000048208DF803006946C94802F0DAFDDB
:100CA0004FF40B70ADF8000048208DF80300694642
:100CB000C44802F0CFFD0321022002F0E1FE08202B
:100CC000029000208DF80C0010208DF80D000120FE
:100CD0008DF80E0002A804F06BFA0621002002F045
:100CE000CFFE4020029000208DF80C0010208DF8DF
:100CF0000D0001208DF80E0002A804F059FA07211A
:100D0000002002F0BDFE8020029000208DF80C0033
:100D100010208DF80D0001208DF80E0002A804F0BF
:100D200047FA0521022002F0ABFE202002900020AD
:100D30008DF80C0010208DF80D0001208DF80E00AC
:100D400002A804F035FA0121084602F099FE0220BB
:100D5000029000208DF80C0010208DF80D0001206D
:100D60008DF80E0002A804F023FA0D21012002F0F4
:100D700087FE4FF40050029000208DF80C001020E8
:100D80008DF80D0001208DF80E0002A804F010FA75
:100D90000F21012002F074FE4FF400400290002069
:100DA0008DF80C0010208DF80D0001208DF80E003C
:100DB00002A804F0FDF90921022002F061FE4FF4BF
:100DC0000070029000208DF80C0010208DF80D00AE
:100DD00001208DF80E0002A804F0EAF90B21002092
:100DE00002F04EFE4FF40060029000208DF80C00DF
:100DF00010208DF80D0001208DF80E0002A804F0DF
:100E0000D7F917208DF8040002208DF80500032083
:100E10008DF8060001208DF8070001A803F043FAC1
:100E200009208DF8040002208DF8050003208DF8BC
:100E3000060001208DF8070001A803F034FA07200E
:100E40008DF8040002208DF8050003208DF80600BF
:100E500001208DF8070001A803F025FA28208DF85D
:100E6000040002208DF8050003208DF80600012003
:100E70008DF8070001A803F016FA1FBD10B5022077
:100E800004F0FCF928B101204F490870022004F059
:100E900006FA10BD10B5042004F001FA10BD10B51B
:100EA000082004F0EBF960B10821464802F065FD26
:100EB00008B1032000E0042044490870082004F031
:100EC000EEF910BD10B5402004F0D8F960B1402112
:100ED0003A4802F052FD08B1052000E006203B49E7
:100EE0000870402004F0DBF9802004F0C7F90028E6
:100EF00036D08021314802F040FD70BB11E034480B
:100F00000078401C324908700120324908601420E2
:100F100001F0C3FF00203049C1F89801B42001F06E
:100F2000BCFF8021254802F028FD08B9012000E01F
:100F3000002027490978052901DA012100E0002174
:100F400008400028DBD122480078052802DB072072
:100F50001E49087000201E490870802004F09FF987
:100F6000202004F08BF928B10120174908702020B7
:100F700004F095F94FF4007004F080F928B10120D5
:100F800011490870400204F08AF910BD10B54FF401
:100F9000005004F073F928B101200B490870400398
:100FA00004F07DF94FF4004004F068F928B1012005
:100FB00005490870C00304F072F910BD0008014033
:100FC000000C014000100140110000201000002022
:100FD0003C000020988121420080214208B5012177
:100FE000142002F0F3FE4FF48470ADF800004820A6
:100FF0008DF8030003208DF802006946084802F0CE
:1010000029FCC120ADF8000048208DF80300032022
:101010008DF802006946034802F01CFC08BD000080
:10102000001001400008014010B5F8A002F055FA88
:10103000C822FEA1FE4802F014F8C822FBA1FD4818
:1010400002F00FF8C822F9A1FB4802F00AF8C82202
:10105000F6A1FA4802F005F8C822F4A1F84802F017
:1010600000F8C822F1A1F74801F0FBFFC822EFA168
:10107000F54801F0F6FFC822ECA1F44801F0F1FFB9
:101080004FF4FA72E9A1F24801F0EBFFF1A002F08F
:1010900024FA10BD10B500242021F54802F06DFCA3
:1010A00004430221F34802F068FC44EA4000C4B261
:1010B0004FF40051EF4802F060FC44EA8000C4B2F3
:1010C0004FF40041EB4802F058FC44EAC000C4B2BF
:1010D0004FF40071E64802F050FC44EA0010C4B23C
:1010E000204610BD2DE9FC4108270020009001900A
:1010F00000240025002612E0681CC5B2FFF7CAFFD5
:101100000DF804001DF80400B04203D01DF804607F
:10111000002401E0601CC4B2192001F0BEFE082CBE
:1011200001DA0C2DE8DB0C2D03DB00260120D2496F
:1011300008702B463246D1A1D94804F0C7FDD848E3
:1011400002F0CBF93046BDE8FC812DE9FC410646B2
:101150000F4614461D460020009001902A46D1A15A
:10116000684604F0B3FD1E21304604F0DAF8394633
:10117000304604F006F92146304604F0DDF86946B1
:10118000304604F0D9F8C8A1304604F0D5F8BDE8DF
:10119000FC8170B505460E4614461E21284604F013
:1011A000C0F83146284604F0ECF82146284604F001
:1011B000C3F8BDA1284604F0BFF870BD10B50246C3
:1011C0000B460020012104E0545C0444E0B24C1CB6
:1011D000A1B25C1DA142F7DB10BD10B502460B4663
:1011E00000209078032103E0545C60404C1CE1B285
:1011F0001C1F8C42F8DA10BD10B5044603E04FF412
:101200007A7001F04AFE201EA4F10101CCB2F6D1A1
:1012100010BD10B5B320A5494871084600790A46AB
:10122000D27800EB022081B2A048FFF7C7FF9F49A8
:10123000887108229E4801F0E8FF10BD10B50B2010
:101240009C4948710A208871084600790A46D2787C
:1012500000EB022081B29748FFF7B0FF9549C871B3
:101260000922934801F0D1FF10BD10B592480078D3
:1012700092494871924800788871084600790A4678
:10128000D27800EB022081B28C48FFF797FF8B49A0
:10129000C8710922864801F0B8FF10BD2DE9FF5F33
:1012A0001E21884804F03DF887A1864804F069F8BB
:1012B00001F0B1FE834804F05DF8C7B23A468149B7
:1012C000874801F0B1FE642001F0E7FD01F0F4FE73
:1012D000001F05B2002D07DC82A002F0FEF80120FD
:1012E0008D49087000BFFEE7284605F09DF982464B
:1012F0002A468A49504603F0FBFF0021681E0AF87F
:101300000010504604F046F80446504605F064F9D3
:10131000264642F6E06084424EDB94FBF0F100FB8F
:1013200011441E217E4803F0FCFF7EA17C4804F09E
:1013300028F842F2107094FBF0F03030784988744D
:101340004FF47A7094FBF0F00A2190FBF1F201FB6C
:10135000120030307249C874642094FBF0F00A2106
:1013600090FBF1F201FB120030306D4908750A2044
:1013700094FBF0F00A2190FBF1F201FB12003030F7
:10138000674948750A2094FBF0F100FB11403030AA
:10139000634988750D20C8750A20087601F03BFE68
:1013A0005F4803F0E7FFC7B23A465D494C4801F099
:1013B0003BFE62A002F091F8002C25DA42F6E060D4
:1013C00094FBF0F100FB114404441E21544803F047
:1013D000A8FF54A1524803F0D4FF42F2107094FBCE
:1013E000F0F030304E4988744FF47A7094FBF0F08E
:1013F0000A2190FBF1F201FB120030304849C87419
:10140000642094FBF0F0A3E0CFE00000536574206B
:101410004D6F746F7220436F6E74726F6C204361F6
:101420007264205374617274000000003000000088
:10143000400000205A000020730000208A00002095
:10144000A4000020BE000020D7000020EF000020F4
:1014500005010020536574204D6F746F7220436F37
:101460006E74726F6C204361726420456E6400007C
:1014700000100140000C014022000020476574204C
:101480004C6F636B205374617475733A25782848E8
:101490004558292C20436F756E743A25640000006E
:1014A0005C020020256400000D0A00002A010020D3
:1014B0000044004032010020120000203B010020C7
:1014C0001300002002030020403139393A4D6F7477
:1014D0006F723A504F533A4D313F0D0A00000000F1
:1014E000003801404765742043757272656E742040
:1014F00053746570733A204641494C2C20576169FA
:1015000074696E672057444720746F207265737446
:101510006172742E2E2E00001E0000208D0300200C
:1015200020030020403139393A4D6F746F723A50C0
:101530004F533A4D3120300D0A0000004F7665724E
:10154000666C6F7720746F20536166650000000041
:101550000A2190FBF1F201FB12003030FE490875C0
:101560000A2094FBF0F00A2190FBF1F201FB12003B
:101570003030F94948750A2094FBF0F100FB114026
:101580003030F54988750D20C8750A20087601F0BD
:1015900042FDF14803F0EEFEC7B23A46EE49EF488D
:1015A00001F042FDEEA001F098FF204604F0EDF8B6
:1015B0000746F14AF14B04F06BF80022F04BCDE9FD
:1015C000000103F04CFFCDE9020104F05FF983460E
:1015D000584604F004F900F0FF09484604F0D0F83A
:1015E0005946029003F038FF039004F00CF90746C7
:1015F000E44AE54B04F032F902D209F1010000E0BF
:10160000484600F0FF09584604F0FDF832468DE8E0
:101610000302DEA1E74804F059FBE64801F05DFF54
:10162000204604B0BDE8F09F10B5E3A001F055FFDF
:10163000E54BE6A2E6A1EA48FFF787FD6422AFF298
:101640001421E74801F00DFD01F0E5FC00240AE05B
:10165000C82001F022FCE3A1E34803F079FE00B1C9
:1016600003E0601CC4B2C82CF2DB00BF10BDF0B5B3
:1016700089B007462022DD4901A803F039FE002584
:10168000797901F00F00052101F093FAD84800782C
:1016900000B3002405E0D648015DE01D3954601C0C
:1016A000C4B2102CF7DB31208DF80F00002507E0C5
:1016B000CF48415D01AA05F10D001154681CC5B267
:1016C000102DF5DB01A801F008FF142001F0E5FB67
:1016D00009B0F0BD0220FFF78FFD6FF01D03BBA224
:1016E000BBA1BF48FFF731FD6422AFF2C021BC4867
:1016F00001F0B7FC01F08FFC00260BE04FF4967070
:1017000001F0CBFBB7A1B84803F022FE00B103E023
:10171000701CC6B2C82EF1DB00BF797901F00F0052
:10172000052101F046FAB2480078002841D0002493
:1017300005E0AF48015DE01D3954601CC4B2102CB7
:10174000F7DB0220FFF758FD1E23A0A2A0A1A448AA
:10175000FFF7FBFC6422AFF22C31A14801F081FCC1
:1017600001F059FC00260BE04FF4967001F095FB58
:101770009CA19D4803F0ECFD00B103E0701CC6B2D3
:10178000C82EF1DB00BF32208DF80F00002507E0E6
:101790009748415D01AA05F10D001154681CC5B2BE
:1017A000102DF5DB01A801F098FE142001F075FB67
:1017B0008EE70220FFF720FD3C2384A284A1884805
:1017C000FFF7C3FC6422AFF29C31854801F049FC6D
:1017D00001F021FC00260BE04FF4967001F05DFB58
:1017E00080A1814803F0B4FD00B103E0701CC6B2D3
:1017F000C82EF1DB00BF797901F00F00052101F05F
:10180000D8F9002405E07A48015DE01D3954601CD8
:10181000C4B2102CF7DB7748007800280FDD3320A6
:101820008DF80F00002507E07148415D01AA05F120
:101830000D001154681CC5B2102DF5DB02E03420F8
:101840008DF80F0001A801F048FE142001F025FBDF
:101850000220FFF7D1FC6FF01D035CA25CA1604881
:10186000FFF773FC6422AFF23C415D4801F0F9FBE5
:1018700001F0D1FB00260AE0C82001F00EFB59A1BF
:10188000594803F065FD00B103E0701CC6B2642E38
:10189000F2DB00BF00BF1BE72DE9F04F9DB006460D
:1018A0004FF0000AD1460024701E03F06EFF324A4A
:1018B000324BCDE9040103F079FE074603F0E6FF61
:1018C0008346FFF7EBFC1FFA80F9484603F058FF08
:1018D0008046594603F0C0FD074603F067FF04B297
:1018E000454884420BDA4042814508DD4349584669
:1018F00003F05DFD834642F6E060204404B241F20D
:101900007070844214DB711EC1F1460003F03DFF8C
:10191000194A1A4BCDE9040103F048FE81F0004159
:10192000074603F0B3FF8346A4F53850E03804B20D
:10193000584603F03BFF05B2284603F018FF074660
:10194000594603F0BFFF69D2284603F010FF5946FD
:10195000049003F081FD53E0200300200038014093
:101960004E6567617469766520746F20506F736986
:101970007469766500000000DBB66DDBB66D65400E
:101980000000F03FCDCCCCCCCCCCEC3F4162736FAF
:101990006C75746520537465703A25642C2041740D
:1019A00020477269643A252E32662C20677269647A
:1019B0003A2564005C020020526F74617465205403
:1019C0006F205363616E00004BF7FFFF4D31200025
:1019D000403139393A4D6F746F723A52756E3A0030
:1019E000C60200204D3100008A03002094660008E2
:1019F0007A0300202502002090E8FFFF00803B468C
:101A0000059003F000FF07460022FE4B03F026FF7F
:101A100001D2681C00E0284605B213E0284603F016
:101A2000A6FE5946049003F017FD059003F0EBFE67
:101A300007460022F44B03F0F9FE01D2681E00E0D5
:101A4000284605B2A5EB090004B2584603F0DBFEB8
:101A50002B464A46009602AF13C7EC4906A804F08D
:101A600035F906A801F039FDB4F1FF3F0BDB012C7D
:101A700009DC0120E64908601E2001F00EFA002072
:101A8000E449C1F8980124B32B46AFF2C002E2A1A9
:101A9000E648FFF75AFB01F0BEFA6422AFF2746128
:101AA000E24801F0DEFA4FF0000A0EE04FF4FA705F
:101AB00001F0F3F9AFF2D401DD4803F049FC00B1C5
:101AC00006E00AF1010000F0FF0ABAF1C80FEDDBF1
:101AD00000BF1DB0BDE8F08F10B5D6488078132840
:101AE00008D0D44880790D30462190FBF1F201FBFB
:101AF000120001E0CF48807984B2E0B2FFF7CCFE5B
:101B000010BD2DE9F84FCB48007900285AD1FFF7D6
:101B1000E9FAC9494871FFF7C1FB0090009803F04A
:101B200034FE8046C54AC64B03F0B2FD064600228D
:101B3000C44B03F094FC044603F0A8FE83465846C9
:101B400003F04DFE00F0FF0A504603F019FE074671
:101B5000594603F081FC044603F055FE0546BA4A97
:101B6000BA4B03F07BFE02D20AF1010000E05046BE
:101B700000F0FF0ABAF10D0F04DDAAF10D00AE4925
:101B8000887103E00AF13900AB498871C82001F07F
:101B900084F95246AEA1B54804F098F8B34801F074
:101BA0009CFCA5480079A44AD27800EB022081B2BF
:101BB000A148FFF703FBA049C8710922AC4801F016
:101BC00024FB28E09B480079122824D1FFF784FFEA
:101BD0004FF47A7001F061F996484079A54948714F
:101BE0009448807988710846FFF741FD0120A1499A
:101BF000487013208870084600790A46D27800EBB6
:101C0000022081B29B48FFF7D9FA9A49C875192278
:101C1000974801F0FAFABDE8F88F2DE9F041002667
:101C2000002795A001F059FC1020974908708148C1
:101C30000079022821D1FFF74FFF4FF47A7001F0AD
:101C40002CF97C4840798B4948717A4880798871B1
:101C50000120487022208870084600790A46D27810
:101C600000EB022081B28348FFF7A8FA8149C875CA
:101C700019227F4801F0C9FAACE06E4800790428C7
:101C8000FAD16C484479062C3ADC2046FEF7C8FFAE
:101C9000FFF728FA7D4908700846007828B17C488B
:101CA0000088A0437A4908801CE0794800882043D6
:101CB000774908807548007878B976A001F00DFC66
:101CC000601E012101FA00F07049097808436F494C
:101CD000087056207849087004E06D480088A043D9
:101CE0006B49088069480378224674A15F4803F075
:101CF000EDFF5E4801F0F1FB01250026002755E0CD
:101D0000072C42DB0A2C40DC072C06D0082C11D013
:101D1000092C1AD00A2C32D124E04648807920B10F
:101D200001203B49091D086003E000203849091DD6
:101D3000086025E03F48807918B101206A490860B1
:101D400002E00020684908601AE03A48807920B132
:101D500001206549091D086003E000206249091D52
:101D600008600DE03348807920B101202849091F1F
:101D7000086003E000202649091F086000E000BF5A
:101D800000BF01250E26102710E00B2C03D10125E2
:101D9000002600270AE00C2C08D10026962707EB26
:101DA0000620962801DB012500E001254F484471FB
:101DB0008571C671077200794C4AD27800EB022017
:101DC00081B24A48FFF7FAF9484948720B2228487D
:101DD00001F01BFA00202C490870BDE8F08110B515
:101DE00020202949087001201249487008460079CE
:101DF0000A46D27800EB022081B20E48FFF7DEF9E6
:101E00000C4975E00000E03F0000E0BF38670008C3
:101E10009881214200802142403139393A4D6F7416
:101E20006F723A4D6F7665546F3A0000A802002039
:101E30008A030020EE03002044010020DBB66DDBA6
:101E4000B66D65400000F03FCDCCCCCCCCCCEC3FA7
:101E50005265706F7274204772696420746F2053EA
:101E6000637265656E3A2564000000005C02002024
:101E700000440040A0010020436865636B20446576
:101E800076696365000000001C0100203E00002010
:101E90001E0100204572726F72204F6E204F7065D8
:101EA0006E20446F6F72205768696C6520436865C7
:101EB000636B696E67000000110000204368656372
:101EC0006B3A204F70656E20446F6F723A25642C18
:101ED000204C6F636B205374617475733A257828B6
:101EE0004845582900000000B40122425301002057
:101EF00088710822FB4801F088F910BD2DE9F047F0
:101F00000746884643463A46F7A1FD4803F0DEFE01
:101F1000FB4801F0E2FA00F027FD0420FFF76CF91E
:101F2000462460E0F74884713D2C08DA204604EB33
:101F3000D0714910A4EB410109B9AC2100E0AB21FB
:101F40008946C9F10003AFF27C52AFF27C51EE48F2
:101F5000FFF7FBF80A22AFF62C31EB4801F081F8CD
:101F60001E21EA4803F0DDF9E9A1E84803F009FA87
:101F7000AFF6CC21E54803F0DFF96422E8A1E3489D
:101F800001F06FF8C82000F088FF3D4627E045F0DB
:101F90001000DC4948710A21284600F00AFE00269C
:101FA00006E0E148815DF01DD64A1154701CC6B2AE
:101FB000102EF6DBD3480079D24AD27800EB02200B
:101FC00081B2D048FFF7FAF8CE49C8751922C54842
:101FD00001F01BF9C82000F060FF681CC5B2454540
:101FE000D5DD601EC4B2002C9CDCBDE8F08710B5C6
:101FF0000020CE4908700822CD49BA4801F005F901
:1020000010BD10B54020C94908700822C949B5481B
:1020100001F0FBF810BD10B50020C449087008227B
:10202000C549B04801F0F1F810BD70B5C34800795A
:10203000122829D1FFF7E5FFFFF74EFD002506E046
:10204000E81DBE49095CBE4A1154681CC5B2102D7A
:10205000F6DBBA484079BB4909780843B84948716A
:10206000B64880798871084600790A46D27800EB34
:10207000022081B2B248FFF7A1F8B149C875192210
:10208000984801F0C2F835E0AC480079022831D117
:10209000AA4884792046FEF767FDFFF723F8AA498E
:1020A00008700846007828B1A8480088A043A749CE
:1020B000088015E0A54800882043A4490880A2486C
:1020C000007868B9A2A001F008FA9F480078204380
:1020D0009D4908705620AB4908700120AA49087034
:1020E000994803782246A9A1854803F0EFFD84486A
:1020F00001F0F3F970BD38B50020009080208B49C5
:1021000008708E480079012874D18C484079A52840
:1021100015D10020A9490870A520A9494871084691
:1021200000790A46D27800EB022081B2A448FFF77A
:1021300045F8A349887108226A4801F066F87F488B
:102140004079E52815D106209C490870E5209C4976
:102150004871084600790A46D27800EB022081B225
:102160009748FFF72BF89649887108225D4801F0DF
:102170004CF89248007805283ADC90480078401CDA
:102180008E4908700A21072000F013FD044614B19F
:102190006420FDF7D7FF002406E06348015DE01DE1
:1021A000884A1154601CC4B2102CF6DB002085490B
:1021B000487188710220487055208870084600795F
:1021C0000A46D27800EB022081B27E48FEF7F6FF85
:1021D0007C49C8751922434801F017F8002405E02E
:1021E0000021E01D774A1154601CC4B2102CF7DBAB
:1021F00037E1FFE751480079122828D1FFF76CFC3E
:10220000002406E04848015DE01D6E4A1154601C40
:10221000C4B2102CF6DB01206A4948705520887042
:102220004648407948714548807988710846007968
:102230000A46D27800EB022081B26248FEF7BEFF68
:102240006049C8751922274800F0DFFF09E13B48C3
:102250000079022831D1394885792846FEF784FC77
:10226000FEF740FF384908700846007828B1374823
:102270000088A8433549088010E034480088284386
:10228000324908803048007818B94FA001F025F98C
:1022900004E02E480088A8432C4908802A4800788A
:1022A000002809D0284803782A4650A1144803F092
:1022B0000DFD134801F011F9D3E02048007980B9F1
:1022C00056480079554AD27800EB022081B2534833
:1022D000FEF774FF514948710722024800F095FF4C
:1022E0009EE0BEE000440040436865636B20426F9F
:1022F0006F6B733A2046726F6D2564546F256400CE
:102300005C0200205E010020C6020020E4020020E2
:10231000403139393A4D6F746F723A52756E3F00E1
:10232000523A3030303030007A0300201C01002057
:10233000770100207F010020B9010020EE0300207A
:10234000870100203F0000203E0000201E010020E9
:102350004572726F72204F6E204F70656E20446F11
:102360006F72205768696C6520426F72726F77696F
:102370006E672042757420536574205375636365DE
:1023800073730000110000201F000020426F727262
:102390006F77696E673A204F70656E20446F6F7279
:1023A0003A25642C204C6F636B20537461747573F1
:1023B0003A257828484558290000000013020020DB
:1023C000CA010020A00100204572726F72204F6E7A
:1023D000204F70656E20446F6F72205768696C657E
:1023E0002052657475726E696E670000526574756F
:1023F000726E696E673A204F70656E20446F6F721F
:102400003A25642C204C6F636B2053746174757390
:102410003A2578284845582900000000D2010020BC
:10242000FFF702F9E7484079E74988700846FFF767
:102430001EF90220E449487055208870084600794A
:102440000A46D27800EB022081B2DF48FEF7B6FEE2
:10245000DD49C8751922DD4800F0D7FE0020DC49AF
:10246000087038BD2DE9F04105462F46D9A001F08E
:1024700034F84620044644E03D2C08DA204604EBBC
:10248000D0714910A4EB410109B9AC2100E0AB21A6
:102490000E467342AFF6CC22AFF6CC21D148FEF700
:1024A00054FE0A22D0A1CF4800F0DBFD1E21CF4808
:1024B00002F037FFAFF2A811CC4802F062FFCCA1C6
:1024C000CA4802F039FF6422AFF2AC11C74800F0ED
:1024D000C8FD3D460DE04FF47A7000F0DEFC0120AF
:1024E000C4490860322000F0D8FC0020C249C1F87D
:1024F0009801281EA5F10101CDB2ECD1601EC0B239
:102500000446002CB8DCBDA000F0E7FF00F02CFA78
:102510000320FEF771FE0220BC494870A94880796B
:1025200020F00200A749887108468079B8490870F0
:10253000B8480078B5494871B548007888710846B0
:1025400000790A46D27800EB022081B2AF48FEF74C
:1025500035FEAE49C87109229C4800F056FEBDE820
:10256000F08110B59748007900284FD095488079C0
:1025700000F0010040B13220A749088008460188D8
:10258000A64802F0C3FD07E0AA20A3490880084638
:102590000188A24802F0BAFD8A48807900F0020062
:1025A000B0B101209349091F08608649497905297E
:1025B00001DC052101E0834949790846FFF752FF14
:1025C00000208C49091F086001209549087003E02C
:1025D00000208849091F08607A48807900F00400CB
:1025E00018B101208F49086002E000208D49086081
:1025F0007448807900F0080020B101208949091D44
:10260000086003E000208749091D086084480078BD
:1026100080BB01207D4948708248001D0068002170
:1026200041EAC0008049D1F8B41140EA81007E49F6
:10263000D1F8B81140EA41006E49091F0968084302
:102640007349087073480078704948717048007881
:102650008871084600790A46D27800EB022081B2E0
:102660006A48FEF7ABFD6949C8710922574800F076
:10267000CCFD03E0FFE700206949087010BD10B5EC
:1026800050480079A0B14F484079012802D1504903
:1026900008700DE04B484079022802D14C4908707F
:1026A00006E048484079032802D1002048490870D4
:1026B000474800785D494871084600790A46D27853
:1026C00000EB022081B25948FEF778FD5749887126
:1026D00008223E4800F099FD10BD2DE9F04186B07A
:1026E0000025002601274FF00508514800780028F2
:1026F00066D000204E49087032484078002860D1EA
:1027000030488078BD2823D02E48807811281FD0EB
:102710002C48807812281BD02A488078132817D09C
:1027200028488078222813D02648807833280FD074
:102730002448807844280BD022488078552807D038
:1027400020488078662803D01E4880787728D6D124
:102750001C4800791B49C97800EB0120401D85B257
:10276000012405E01748005D3044C6B2601CC4B2C5
:10277000AC42F7DB1348405DB042C0D111488078CD
:10278000222803D00F488078662803D100202949E9
:10279000087002E00120274908700A488079094939
:1027A0004979084A1279074BDB78CDE90132CDE946
:1027B00003100448807800900248437802783BE098
:1027C000ACE0A8E0EE030020A0010020004400409F
:1027D0001C010020446973696E666563742053743C
:1027E00061727400C602002030000000E402002084
:1027F0000D0A0000988121420080214244697369DA
:102800006E6665637420456E64000000E10100207F
:102810001B0100201A0100201C00002000080040BD
:1028200014020020B401224200002242EA010020EA
:102830001D0200200C0000203AA1474803F046FA90
:10284000454800F04AFE45488078442855D00CDCC5
:10285000132823D004DC112812D0122859D112E0F9
:1028600022281ED0332854D11EE0552848D066288F
:1028700049D077284AD0BD284BD1FEF7CAFC49E0A1
:10288000FEF7DCFC46E03548007910B9FEF7EDFCB8
:1028900003E03248C079324908703BE0FFF731F974
:1028A00038E0FFF7BAF935E0FFF799FA2B4840799D
:1028B000042810D004DC012807D0022814D107E036
:1028C00008280BD010280FD10BE00127B8460CE0E8
:1028D0000227B84609E00327B84606E00427B846B1
:1028E00003E00527B84600E000BF00BF4146384678
:1028F000FFF704FBFFF77BFB0CE0FFF796FB09E01B
:10290000FFF7F9FB06E0FFF72CFE03E0FFF7B7FE49
:1029100000E000BF00BF00201249087006B0BDE80B
:10292000F0810000526563656976656420436D64DB
:102930003A20303A255820313A255820323A255845
:1029400020333A255820343A255820353A25582046
:10295000363A2558000000005C020020EE030020FB
:10296000140000201F0200202DE9FE4F4FF0000B45
:10297000FEF794FC8246504602F007FF0646304AB6
:10298000304B02F085FE044600222F4B02F067FD1B
:10299000804602F07BFF0290029802F034FF52461C
:1029A000CDE9000129A1314803F090F92F4800F04A
:1029B00094FD029802F013FFC0B2012801D142F643
:1029C000E06A41F2707082452ADD4000A0EB0A0007
:1029D00000F5967326A227A12A48FEF7B6FB4FF40E
:1029E0007A7229A1274800F03CFB00F014FB4FF05D
:1029F000000B0DE04FF4967000F04FFA23A124482D
:102A000002F0A6FC00B106E00BF1010000F0FF0BA4
:102A1000BBF1C80FEEDB00BF4FF47A7000F03DFA57
:102A2000642219A11BA000F01CFB64221FA121A09D
:102A300000F017FB25A000F050FDBDE8FE8F000060
:102A4000DBB66DDBB66D65400000F03F5265736527
:102A5000742053746172742E20537465703A256427
:102A60002C20477269643A252E3266005C020020F1
:102A70004D312000403139393A4D6F746F723A52FE
:102A8000756E3A00C6020020300000004D31000093
:102A90008A030020403139393A4D6F746F723A48D9
:102AA0006F6D653A4D310D0A0000000048313A3132
:102AB00000000000403139393A4D6F746F723A4866
:102AC0006F6D653A4D313F0D0A0000005265736528
:102AD00074204F4B0000000070B505460C4645F2CF
:102AE000555002F0E5FB284602F0E5FB204602F0D7
:102AF000E5FB02F0E6FB02F0E9FB70BD10B502F069
:102B0000E0FB10BD08B501210C2001F05FF9122097
:102B1000ADF8000010208DF8030003208DF80200AE
:102B20006946504800F096FE12214E4800F03FFFE3
:102B30004FF40070ADF8000010208DF80300032062
:102B40008DF802006946484800F084FE4FF4007199
:102B5000454800F02CFF08BD7047411EC8B200F088
:102B6000010119B10121414A116002E000213F4AEF
:102B7000116000F0020121B101213C4A0C321160C8
:102B800003E00021394A0C32116000F0040119B150
:102B90000121374A116002E00021354A1160704777
:102BA0000120324908603349C1F89001304908607A
:102BB00070472DE9F04107460D46002600202E49BA
:102BC000087032212D4802F0ACFB3846FFF7C5FFF4
:102BD00006E0C82000F061F92948007800B104E05F
:102BE000281EA5F10101CDB2F3D100BFFFF7D8FF38
:102BF000002404E0002023490855601CC4B2102CB6
:102C0000F8DB1F480078F8B100201D490870002447
:102C100007E01A48005D2D2801D1012605E0601C5F
:102C2000C4B2154800788442F3DB00BF6EB10024C3
:102C300005E01248005D13490855601CC4B20E48F7
:102C40000078401EA042F4DC08E0002404E0FF20ED
:102C50000C490855601CC4B2102CF8DB3046BDE8A6
:102C6000F081000000080140000C01408401214275
:102C7000A481214200002142250200206604002098
:102C8000240200207A03002010B56248006820F476
:102C90007060604908600846006840F44070086051
:102CA00000205D490860142000F0F7F801205B491E
:102CB000C1F888011E2000F0CCF810BD10B500242A
:102CC0005448006820F47060524908600846006863
:102CD00040F40060086004E0601CC4B2012000F011
:102CE000B8F84D488038006808B1642CF4DB642CD7
:102CF00001DB012010BD002404E0601CC4B20120EF
:102D000000F0A7F844488038006808B9642CF4DB68
:102D1000642C01DB0120EDE70020EBE710B5002477
:102D200004E0601CC4B2012000F093F83A488038F7
:102D3000006808B1642CF4DB002404E0601CC4B219
:102D4000012000F086F834488038006808B9642C07
:102D5000F4DB282000F07DF82F488038006808B1A7
:102D6000012010BD0020FCE770B50024002506E01E
:102D70006006040EFFF7D2FF0443681CC5B2082D9D
:102D8000F6DB204670BD7CB505460E46FFF77CFF9E
:102D9000FFF794FFF8B9002405E0FFF7E5FF0DF811
:102DA0000400601CC4B2052CF7DB9DF800009DF800
:102DB000011008449DF8021008449DF803100844CF
:102DC0009DF80410884208D19DF8000030709DF8ED
:102DD0000200287001E001207CBD0020FCE708B55E
:102DE0000121102000F0F2FF0420ADF800001020B7
:102DF0008DF8030003208DF802006946054800F0B5
:102E000029FD0421034800F0D2FDFFF73DFFFFF745
:102E100055FF08BD001001408801224200002242F7
:102E200010B56FF0040001F088FA2E4800682E49B2
:102E3000B0FBF1F02D4908700846007800EB400126
:102E4000C1EBC0104FF6FF7101EAC00028490880AD
:102E500010BD0146254A12784A434FF0E0235A61DB
:102E600000229A611A46126942F001021A6100BFFB
:102E70004FF0E022106900F001021AB100F4803234
:102E8000002AF5D04FF0E022126922F001024FF043
:102E9000E0231A6100229A6170470146144A1288A1
:102EA0004A434FF0E0235A6100229A611A461269A0
:102EB00042F001021A6100BF4FF0E022106900F0F9
:102EC00001021AB100F48032002AF5D04FF0E0225E
:102ED000126922F001024FF0E0231A6100229A6188
:102EE000704700002800002000127A00160200201F
:102EF0001802002008B50121102000F067FF802093
:102F0000ADF8000010208DF8030003208DF80200BA
:102F10006946714800F09EFC80216F4800F049FD31
:102F200008BD10B580216C4800F041FD10BD10B502
:102F30008021694800F03DFD10BD10B586B0044603
:102F4000012144F2040000F041FF4FF40070ADF89D
:102F5000140003208DF8160018208DF8170005A91D
:102F60005E4800F077FC4FF48060ADF81400042058
:102F70008DF8170005A9594800F06CFC25208DF844
:102F8000000002208DF8010003208DF802000120CE
:102F90008DF80300684601F086F901940020ADF831
:102FA0000800ADF80A00ADF80C00ADF810000C20D8
:102FB000ADF80E0001A94A4800F0AFFF012240F22F
:102FC0002551474801F041F80121454801F031F809
:102FD00006B010BD10B54249098801F00F0119B1C2
:102FE0003F49091D088815E03D49098801F0200185
:102FF00081B13B49091D08883A4A11784A1C394C6D
:103000002270394A505421460978FF2902DB0021F9
:103010002246117010BD10B56421334802F081F9C9
:1030200000203049087010BD2DE9F04107460C46DC
:1030300015464021384601F0E4F800260DE014F86A
:10304000011B384601F062F800BF4021384601F00C
:10305000CBF80028F9D0701CC6B2AE42EFDBBDE859
:10306000F0812DE9F04104460E46154620E0FFF7B9
:10307000D2FF204602F07EF9C7B23A4621461848F0
:10308000FFF7D2FFA8B2FFF708FF3146164802F05B
:103090005FF900B10DE05F20FFF7FFFE012013494B
:1030A00008600520FFF7F9FE00201149C1F89801DA
:1030B000DDE700BFBDE8F0810A480078704770B5D1
:1030C00005460C4625B122460749284602F010F96C
:1030D000FFF7A1FF70BD0000001001400008014093
:1030E000003801401C0200208A0300209881214200
:1030F0000080214210B586B004460121042000F072
:1031000065FE0121480400F06EFE0420ADF81400B5
:1031100003208DF8160018208DF8170005A94548E2
:1031200000F098FB0820ADF8140004208DF817007B
:1031300005A9404800F08EFB26208DF800000020F5
:103140008DF8010003208DF8020001208DF80300A6
:10315000684601F0A8F801940020ADF80800ADF829
:103160000A00ADF80C00ADF810000C20ADF80E0010
:1031700001A9314800F0D1FE012240F225512E482C
:1031800000F063FF012240F224412B4800F05DFF74
:103190000121294800F04DFF06B010BD10B540F2E6
:1031A0002551254801F036F888B12349091D0988C1
:1031B000CAB222490878411C204B197020490A5490
:1031C000184600781E2802DD00201946087040F2DB
:1031D0002441194801F01EF838B1174800881648F4
:1031E000001D008801201749087010BD70B5044605
:1031F0000D462946204600F089FF00BF40212046A9
:1032000000F0F2FF0128F9D170BD2DE9F041074629
:103210000D4616464021384600F0F3FF002405E035
:10322000295D3846FFF7E2FF601CC4B2B442F7DB09
:10323000BDE8F08100080140004400401F0200206A
:10324000EE0300201D02002010B586B004460121C7
:10325000082000F0BBFD0121880400F0C4FD4FF4FC
:103260008060ADF8140003208DF8160018208DF84A
:10327000170005A9314800F0EDFA0820ADF8140058
:1032800004208DF8170005A92C4800F0E3FA272048
:103290008DF8000001208DF8010003208DF8020058
:1032A00001208DF80300684600F0FDFF0194002026
:1032B000ADF80800ADF80A00ADF80C00ADF810004C
:1032C0000C20ADF80E0001A91D4800F026FE0122D9
:1032D00040F225511A4800F0B8FE012240F2244184
:1032E000174800F0B2FE0121154800F0A2FE06B01A
:1032F00010BD10B500BF40F22551114800F08AFF03
:1033000058B10F49091D0988CAB20E490878411CF5
:103310000C4B19700C490A540FE040F22441084844
:1033200000F078FF48B106480088C4B20448001D88
:103330000088C4B201200549087010BD000C01408E
:1033400000480040210200205204002020020020FA
:1033500010B586B004460121102000F037FD012190
:10336000C80400F040FD4FF48060ADF81400032065
:103370008DF8160018208DF8170005A9324800F0C6
:1033800069FA4FF40060ADF8140048208DF817007A
:1033900005A92D4800F05EFA34208DF800000120C8
:1033A0008DF8010003208DF8020001208DF8030044
:1033B000684600F078FF01940020ADF80800ADF8F1
:1033C0000A00ADF80C00ADF810000C20ADF80E00AE
:1033D00001A91E4800F0A1FD012240F225511B4821
:1033E00000F033FE012240F22441184800F02DFE87
:1033F0000121164800F01DFE06B010BD10B500BF3B
:1034000040F22551114800F005FF58B10F49091D40
:103410000988CAB20E490878411C0D4B19700D4934
:103420000A540FE040F22441084800F0F3FE48B18E
:1034300006480088C4B20548001D0088C4B20120B7
:103440000549087010BD000000100140004C00400C
:1034500025020020660400202402002010B586B05A
:1034600004460121102000F0B1FC0121080500F004
:10347000BAFC4FF48050ADF8140003208DF816000C
:1034800018208DF8170005A9294800F0E3F9352028
:103490008DF8000001208DF8010003208DF8020056
:1034A00001208DF80300684600F0FDFE0194002025
:1034B000ADF80800ADF80A00ADF80C00ADF810004A
:1034C0000820ADF80E0001A91A4800F026FD0121E0
:1034D000184800F0AEFD06B010BD70B50446204699
:1034E00001F048FFC6B24021124800F08AFE0025D4
:1034F0000DE014F8011B0F4800F008FE00BF40214A
:103500000C4800F071FE0028F9D0681CC5B2B54225
:10351000EFDB0A21074800F0F9FD00BF4021054814
:1035200000F062FE0028F9D01420FFF7B6FC70BD51
:1035300000100140005000407FB505460C460121B7
:10354000022000F050FCADF80850ADF80440002017
:10355000ADF80A00ADF8060001A93A4800F0E0FF16
:1035600001221146374801F052FB1D208DF8000062
:1035700000208DF8010002208DF8020001208DF856
:103580000300684600F08FFE01212E4801F024FB65
:103590007FBD10B501212B4801F0E7FD00284FD079
:1035A00029480068C0432949C1F8840128480078A7
:1035B00050B10120274908603220FFF76EFC00203F
:1035C0002549C1F8980113E0FFF798FA23480078DD
:1035D00070B123480078401CC0B221490870062809
:1035E00006D1002008701D49087054201D4908703C
:1035F0001D480078401CC0B21B4908703C2810D1FF
:103600000020087019480078401CC0B217490870A3
:103610003C2806D10020087015480078401C144949
:10362000087014480078401CC0B2124908700A287B
:1036300002D10120104908700121024801F0A6FDC5
:1036400010BD00000004004084012242000022421C
:103650001E00002098812142008021421F0000208E
:103660002702002011000020150000201600002075
:103670001800002026020020200100207FB505460A
:103680000C460121042000F0AEFBADF80850ADF867
:1036900004400020ADF80A00ADF8060001A9324848
:1036A00000F03EFF012211462F4801F0B0FA1E2023
:1036B0008DF8000000208DF8010003208DF8020035
:1036C00001208DF80300684600F0EDFD0121264839
:1036D00001F082FA7FBD10B50121234801F045FDBC
:1036E00018B10121204801F051FD10BD30B589B05D
:1036F00005460C460121042000F075FB012109203C
:1037000000F064FB8020ADF8200018208DF8230025
:1037100003208DF8220008A9144800F09BF8ADF8AA
:103720001850ADF814400020ADF81A00ADF816009E
:1037300005A90D4800F0F4FE7020ADF8040001204A
:10374000ADF806000020ADF80C0001A9064800F015
:1037500066FF0821044801F078FB0121024801F0CE
:103760003BFA09B030BD000000080040000C0140E9
:103770000648804706480047FEE7FEE7FEE7FEE70B
:10378000FEE7FEE7FEE7FEE7FEE7FEE78F0800083C
:103790003101000810B50446CC48844208D101210B
:1037A000042000F02DFB0021042000F029FB46E05E
:1037B000C748844208D10121082000F021FB0021E4
:1037C000082000F01DFB3AE0C248844208D10121E4
:1037D000102000F015FB0021102000F011FB2EE05E
:1037E000BD48844208D10121202000F009FB0021BE
:1037F000202000F005FB22E0B848844208D10121D6
:10380000402000F0FDFA0021402000F0F9FA16E017
:10381000B348844208D10121802000F0F1FA002150
:10382000802000F0EDFA0AE0AE48844207D1012181
:10383000801500F0E5FA0021A01500F0E1FA10BDB6
:1038400010B50121084600F0DBFA0021012000F04C
:10385000D7FA10BD2DE9F0410246002500260020D0
:1038600000230024002791F803C00CF00F0591F805
:1038700003C00CF0100CBCF1000F03D091F802C093
:103880004CEA050591F800C0BCF1000F31D0146876
:1038900000202BE04FF0010C0CFA00F3B1F800C04F
:1038A0000CEA03069E4220D183004FF00F0C0CFA65
:1038B00003F7BC4305FA03FC4CEA040491F803C087
:1038C000BCF1280F06D14FF0010C0CFA00FCC2F835
:1038D00014C00AE091F803C0BCF1480F05D14FF0C5
:1038E000010C0CFA00FCC2F810C0401C0828D1D30F
:1038F0001460B1F800C0BCF1FF0F34DD5468002043
:103900002EE000F1080C4FF0010808FA0CF3B1F8B2
:1039100000C00CEA03069E4221D183004FF00F0C39
:103920000CFA03F7BC4305FA03FC4CEA040491F8D3
:1039300003C0BCF1280F05D100F1080C08FA0CF8FF
:10394000C2F8148091F803C0BCF1480F07D100F110
:10395000080C4FF0010808FA0CF8C2F81080401C5F
:103960000828CED35460BDE8F0814FF6FF71018086
:10397000022181700421C1707047024600209368C3
:103980000B400BB1012000E0002070470146886821
:1039900080B2704702460020D3680B400BB1012073
:1039A00000E0002070470146C86880B2704701619E
:1039B0007047416170470AB1016100E041617047A1
:1039C000C16070474FF480320A4382618161826135
:1039D00082698269704702460020434B18684FF69F
:1039E0008073184040EA021008433F4B186070474C
:1039F0003E49C8617047F0B50A4600230024002103
:103A0000002500F00046B6F1004F02D1364EF169B4
:103A100001E0354E7168C0F3034583B200F44016EF
:103A2000B6F5401F08D121F070612F4E766826F060
:103A300070662D4F7E6012E000F48016B6F5801F90
:103A400006D1032606FA05F4A14341F0706106E0B1
:103A5000460D360103FA06F6B14341F0706122B11A
:103A6000460D360103FA06F6314300F00046B6F182
:103A7000004F02D11C4EF16101E01B4E7160F0BDA0
:103A800030B500228B071C0F0F2303FA04F2164BEC
:103A900008338C1053F824309343134C08348D10A2
:103AA00044F8253023468C1053F824308C07240F1B
:103AB00000FA04F423430C4C08348D1044F82530EC
:103AC00030BD0A49DC310860704700000008014041
:103AD000000C01400010014000140140001801409A
:103AE000001C014000200140000001400000204275
:103AF000DF48006840F00100DD4908600846406882
:103B0000DC490840DA49486008460068DA4908405C
:103B1000D74908600846006820F4802008600846FD
:103B2000406820F4FE0048604FF41F008860704732
:103B3000CF49096821F48031CD4A116011460968E6
:103B400021F480211160B0F5803F03D0B0F5802FC3
:103B50000ED106E0C649096841F48031C44A1160BB
:103B600007E0C349096841F4A021C14A116000E09F
:103B700000BF00BF704710B501460022002300209F
:103B80004A11012A02D1BA4C236806E0022A02D166
:103B9000B74C236A01E0B64C636A01F01F020124AE
:103BA00094401C400CB1012000E0002010BD38B54D
:103BB000002000900024002500BF3120FFF7DBFF2C
:103BC00005460098401C00900098B0F5A06F01D009
:103BD000002DF2D03120FFF7CEFF08B1012400E024
:103BE0000024204638BD01460020A14A106820F07C
:103BF000F80040EAC10010607047A04908607047B3
:103C0000024600209A4B586820F47C1042EA0103D7
:103C10001843974B586070479849086670470146AB
:103C20000020934A506820F003000843506070471A
:103C30008F48406800F00C007047014600208C4A15
:103C4000506820F0F00008435060704701460020A3
:103C5000874A506820F4E06008435060704701468E
:103C60000020834A506820F4605040EAC100506050
:103C7000704729B17E4A527A02437D4B5A7204E062
:103C80007B4A527A82437A4B5A7270477B49D831C9
:103C90000860704701460020754A506820F4404093
:103CA0000843506070470021714A20321170704AF9
:103CB00082F82010012802D004280AD104E0012152
:103CC0006B4A2032117005E00521694A20321170DB
:103CD00000E000BF00BF7047694908607047644951
:103CE000096A0143624A11627047654944390860B4
:103CF000704730B500210022002400235C4D6D6820
:103D000005F00C0121B1042905D0082923D105E0D3
:103D10005C4D056022E05B4D05601FE0544D6D6811
:103D200005F47012524D6D6805F48034022505EBE0
:103D300092421CB9544D554305600BE04C4D6D68E3
:103D400005F400351DB1504D5543056002E04D4D61
:103D50005543056002E04B4D056000BF00BF444D78
:103D60006D6805F0F0010909484D6B5C0568DD40A0
:103D700045603F4D6D6805F4E061090A434D6B5C99
:103D80004568DD4085603A4D6D6805F46051C90AAB
:103D90003E4D6B5C4568DD40C560354D6D6805F492
:103DA0004041890B3A4D6B5CC568B5FBF3F5056185
:103DB00030BD29B12E4A526902432D4B5A6104E0AD
:103DC0002B4A526982432A4B5A61704729B1284ACB
:103DD00092690243264B9A6104E0254A9269824324
:103DE000234B9A61704729B1214AD2690243204B83
:103DF000DA6104E01E4AD26982431D4BDA617047E2
:103E000029B11B4AD2680243194BDA6004E0184A10
:103E1000D2688243164BDA60704729B1144A12699E
:103E20000243134B1A6104E0114A12698243104B9A
:103E30001A61704712494039086070470F49C864D9
:103E400070470B49C87170470948406A40F080705C
:103E500007494862704701460020054A92680A40B7
:103E60000AB1012000E000207047014988727047C4
:103E7000001002400000FFF8FFFFF6FE0000424283
:103E80008004424200127A0000093D00280200200E
:103E90003802002010B50446FB48844209D10121B4
:103EA0008803FFF7ADFF00214FF48040FFF7A8FF24
:103EB00032E0F648844209D101214804FFF7ADFF02
:103EC00000214FF40030FFF7A8FF25E0F0488442BE
:103ED00009D101218804FFF7A0FF00214FF48020C1
:103EE000FFF79BFF18E0EB48844209D10121C80489
:103EF000FFF793FF00214FF40020FFF78EFF0BE048
:103F0000E548844208D101210805FFF786FF00211A
:103F10004FF48010FFF781FF10BD2DE9F04786B008
:103F200005460E460024A24600BFA1460027B089E0
:103F300000B100BF2F462C8A4CF6FF700440F08879
:103F400004432C82AC894EF6F3100440B0883189CA
:103F50000843718908430443AC81AC8A4FF6FF40A3
:103F60000440B0890443AC8201A8FFF7C2FEC648F2
:103F7000874202D1DDF810A001E0DDF80CA0A8898D
:103F800000F4004040B10AEBCA0000EB0A103168AF
:103F90004900B0FBF1F807E00AEBCA0000EB0A1099
:103FA00031688900B0FBF1F86420B8FBF0F004013F
:103FB0002009642101FB1089A88900F4004040B168
:103FC000322000EBC900B0FBF1F000F00700044321
:103FD00008E0322000EB09106421B0FBF1F000F0A2
:103FE0000F0004432C8106B0BDE8F0874FF4165152
:103FF000016000218180C18001810C21418100216B
:104000008181704710B502460020108A4FF2FF03ED
:1040100018400B884C8823438C882343CC88234347
:104020001843108210BD0021018041808180C18031
:10403000704721B1828942F40052828104E0828972
:104040004DF6FF731A4082817047F0B50346002495
:1040500000260025002040F66A17B94200D100BFB3
:104060001846C1F3421401F01F06012707FA06F5AE
:10407000012C01D10C3004E0022C01D1103000E001
:1040800014301AB107682F43076002E00768AF4396
:104090000760F0BD1AB1838A0B43838202E0838AF2
:1040A0008B4383827047028A4FF6F0731A40028274
:1040B000028A0A430282704782894FF2FF731A40D4
:1040C000828182890A438281704721B1828942F0CC
:1040D0000202828104E082894FF6FD731A408281D8
:1040E0007047028A4FF6DF731A400282028A0A433F
:1040F0000282704721B1028A42F48042028204E0C7
:10410000028A4BF6FF731A4002827047C1F308021D
:104110008280704701468888C0F308007047818913
:1041200041F0010181817047028BD2B20283028B80
:1041300042EA012202837047028B02F47F4202832B
:10414000028B0A430283704721B1828A42F0200227
:10415000828204E0828A4FF6DF731A4082827047BF
:1041600021B1828A42F01002828204E0828A4FF6F4
:10417000EF731A408282704721B1828A42F00802AE
:10418000828204E0828A4FF6F7731A408282704777
:1041900021B1828942F40042828103E08289C2F324
:1041A0000E028281704721B1828A42F400628282CB
:1041B00004E0828A4FF2FF731A4082827047828A3B
:1041C0004FF6FB731A408282828A0A4382827047CA
:1041D00021B1828A42F00202828204E0828A4FF692
:1041E000FD731A408282704702460020B1F5007FBD
:1041F00000D100BF13880B400BB1012000E000206C
:10420000704701F40072B2F5007F00D100BFCA43CD
:104210000280704770B5024600240023002500206C
:1042200040F66A16B14200D100BFC1F3421501F059
:104230001F03012606FA03F3012D02D196893340AC
:1042400006E0022D02D1168A334001E0968A3340FF
:104250000C12012606FA04F41688344013B10CB18E
:10426000012000E0002070BD10B50022002340F6C0
:104270006A14A14200D100BF0A1201249440A3B2E3
:10428000DC43048010BD00000038014000440040C1
:1042900000480040004C00400050004031490143BC
:1042A000314A1160704770B5002100230F22C47895
:1042B00004B32D4C246804F4E064C4F5E064210ADE
:1042C000C1F10403CA40447804FA03F1847814402D
:1042D00021430901254C0678A155047804F01F05F7
:1042E0000124AC4005786D11AD0005F1E025C5F85D
:1042F000004109E0047804F01F050124AC401C4D86
:104300000678761145F8264070BD1A4A0A400243E5
:10431000154B1B1F1A60704739B1134A121D1268E2
:104320000243114B1B1D1A6006E00F4A121D126852
:1043300082430D4B1B1D1A607047042808D14FF0B3
:10434000E021096941F004014FF0E022116107E02A
:104350004FF0E021096921F004014FF0E0221161E2
:10436000704700000000FA050CED00E000E400E0FA
:1043700080E100E080FFFF1F10B50446FE48844244
:1043800008D10121C014FFF73BFD0021E014FFF725
:1043900037FDC4E0B4F1804F08D101210846FFF792
:1043A0003CFD00210120FFF738FDB8E0F3488442CE
:1043B00008D101210220FFF730FD00210220FFF784
:1043C0002CFDACE0EE48844208D101210420FFF727
:1043D00024FD00210420FFF720FDA0E0E9488442ED
:1043E00008D101210820FFF718FD00210820FFF760
:1043F00014FD94E0E448844208D101211020FFF725
:104400000CFD00211020FFF708FD88E0DF48844202
:1044100008D101212020FFF700FD00212020FFF717
:10442000FCFC7CE0DA48844208D101214014FFF70B
:10443000E7FC00216014FFF7E3FC70E0D5488442FC
:1044400009D10121C804FFF7DBFC00214FF4002053
:10445000FFF7D6FC63E0D048844209D1012108056A
:10446000FFF7CEFC00214FF48010FFF7C9FC56E0A7
:10447000CA48844209D101214805FFF7C1FC002147
:104480004FF40010FFF7BCFC49E0C548844208D156
:1044900001214020FFF7C1FC00214020FFF7BDFCB7
:1044A0003DE0C048844208D101218020FFF7B5FCDF
:1044B00000218020FFF7B1FC31E0BB48844208D1E5
:1044C00001218015FFF7A9FC0021A015FFF7A5FC2D
:1044D00025E0B648844209D101210804FFF790FC89
:1044E00000214FF48030FFF78BFC18E0B048844285
:1044F00009D101214804FFF783FC00214FF400306B
:10450000FFF77EFC0BE0AB48844208D10121880410
:10451000FFF776FC00214FF48020FFF771FC10BDFF
:1045200000220288944B98420ED0994B98420BD0AF
:10453000B0F1804F08D0914B984205D0904B9842F3
:1045400002D0904B984204D14FF68F731A404B889B
:104550001A438D4B984207D08C4B984204D04FF6AB
:10456000FF431A40CB881A4302808B8883850B88CF
:104570000385814B98420BD0854B984208D08B4BDA
:10458000984205D08A4B984202D08A4B984201D17A
:104590000B7A038601238382704770B500240022C2
:1045A0000023058C4FF6FE7635400584028C838807
:1045B000048B4FF68F752C40B51E2C400D882C4374
:1045C000751E2A400D892A434D882A436A4DA84208
:1045D0000BD06F4DA84208D0744DA84205D0744D41
:1045E000A84202D0734DA84213D14FF6F7752A4066
:1045F0004D892A434FF6FB752A408D882A434FF692
:10460000FF652B404FF6FF552B408D892B43CD89FD
:104610002B4383800483CD888586028470BD70B56A
:10462000002400220023058C4FF6EF7635400584E8
:10463000028C8388048B48F6FF752C404FF6FF45AB
:104640002C400D884FF6FF7606EA05252C434FF6E1
:10465000DF752A400D8906EA05152A434D8806EACA
:1046600005152A43444DA84202D0494DA8421DD108
:104670004FF67F752A404D894FF6FF7606EA0515FD
:104680002A434FF6BF752A408D8806EA05152A434E
:104690004FF6FF352B404FF2FF752B408D8906EA10
:1046A00085052B43CD8906EA85052B43838004834A
:1046B000CD880587028470BD70B5002400220023D8
:1046C000058C4FF6FF6635400584028C8388848B09
:1046D0004FF68F752C404FF6FC752C400D882C43FF
:1046E0004FF6FF552A400D894FF6FF7606EA05255D
:1046F0002A434D8806EA05252A431F4DA84202D0C9
:10470000234DA8421DD14FF2FF752A404D894FF627
:10471000FF7606EA05252A434FF6FF352A408D88A5
:1047200006EA05252A434EF6FF752B404DF6FF7528
:104730002B408D8906EA05152B43CD8906EA051520
:104740002B4383808483CD888587028470BD70B5B8
:10475000002200230024058C4EF6FF7635400584A8
:10476000038C8488828B48F6FF752A404FF6FF45FC
:104770002A400D8820E00000002C01400004004089
:1047800000080040000C00400010004000140040F1
:1047900000340140004C01400050014000540140F1
:1047A00000180040001C0040002000400040014074
:1047B00000440140004801404FF6FF7606EA052517
:1047C0002A434DF6FF752B400D8906EA05352B432C
:1047D0004D8806EA05352B43FA4DA84202D0FA4D22
:1047E000A84208D14BF6FF752C408D894FF6FF7615
:1047F00006EA85152C4384808283CD88A0F840503A
:10480000038470BD828B4FF2FF331A408283828B08
:104810004FF6FF7303EA01231A4382837047F0B512
:104820000C461546002200210026078C4EF6FF7C20
:1048300007EA0C070784828B018C4FF6FF7707EAA3
:10484000043640F6FF473A404FF6FF7707EA052760
:104850003A434FF6FF7707EA03373A43D94FB84256
:104860000ED0D94FB8420BD0B0F1804F08D0D74FFF
:10487000B84205D0D64FB84202D0D64FB84206D182
:104880004DF6FF77394046F48057394305E047F647
:10489000FF57394044F48057394382830184F0BD87
:1048A000828B4FF6F3731A408283828B0A43828392
:1048B0007047F0B50C461546002200210026078CF3
:1048C0004FF6FF6C07EA0C070784828B018C4FF6CA
:1048D000FF7707EA04264FF60C773A404FF6FF774A
:1048E00007EA03172F433A43B64FB8420ED0B64FEC
:1048F000B8420BD0B0F1804F08D0B44FB84205D0C9
:10490000B34FB84202D0B34FB84206D14FF6FF576B
:10491000394046F48077394305E04FF2FF5739407C
:1049200044F48077394382830184F0BD028B4FF2D7
:10493000FF331A400283028B4FF6FF7303EA012311
:104940001A4302837047F0B50C4615460022002139
:104950000026078C4FF6EF7C07EA0C070784028BD2
:10496000018C4FF6FF7707EA041640F6FF473A40FE
:104970004FF6FF7707EA03373A434FF6FF7707EA28
:1049800005273A438F4FB8420ED08F4FB8420BD015
:10499000B0F1804F08D08D4FB84205D08C4FB8424F
:1049A00002D08C4FB84206D14FF6DF77394046F03F
:1049B0001007394305E04FF65F77394044F01007A0
:1049C000394302830184F0BD028B4FF6F3731A4022
:1049D0000283028B0A4302837047F0B50C461546EA
:1049E00000220021068C4FF6FE773E400684028BA3
:1049F000018C4FF60C7632407E1C06EA03162E43DD
:104A00003243704EB0420ED06F4EB0420BD0B0F178
:104A1000804F08D06D4EB04205D06D4EB04202D0EE
:104A20006C4EB04206D14FF6FD76314044F001069F
:104A3000314305E04FF6F576314044F0010631434D
:104A400002830184F0BD70B505460C465D48854281
:104A50000ED05D4885420BD0B5F1804F08D05B4841
:104A6000854205D05A48854202D05A48854200D135
:104A700000E000BF208850B92389A28861882846B9
:104A8000FFF7ABFFE1882846FFF79EFF25E020886F
:104A900004280AD12389A28861882846FFF753FF9A
:104AA000E1882846FFF742FF17E0208808280AD14E
:104AB0002389A28861882846FFF7FBFEE188284603
:104AC000FFF7EEFE09E02389A28861882846FFF7F8
:104AD000A6FEE1882846FFF795FE70BD2DE9F0415E
:104AE00005460C4600260127608808B9022600E02A
:104AF0000026A088012801D1022700E00127208894
:104B0000A0B92389A28861882846FFF766FFE1885B
:104B10002846FFF759FF23893A4631462846FFF7D2
:104B200012FFE1882846FFF701FF13E02389A288DE
:104B300061882846FFF707FFE1882846FFF7F6FE61
:104B400023893A4631462846FFF747FFE188284641
:104B5000FFF73AFFBDE8F0810A884B881A438B883B
:104B60001A43CB881A430B891A434B891A438B8902
:104B70001A43A0F8442070474FF6FF71818000214E
:104B80000180C18041800172704700210180418015
:104B90008180C180018141818181C1817047002173
:104BA00001804180012181800021C1800181704705
:104BB0000021018041808180C1800181418181810A
:104BC00070470000002C0140003401400004004008
:104BD00000080040000C004021B1028842F00102B0
:104BE000028004E002884FF6FE731A40028070478C
:104BF00031B1B0F8442042F40042A0F8442005E06E
:104C0000B0F84420C2F30E02A0F8442070471AB155
:104C100083890B43838102E083898B4383817047BF
:104C20008182704741EA0203A0F8483070471AB108
:104C300083890B43838102E083898B43838170479F
:104C400001894FF6F8721140018170470A46002130
:104C500001894FF68F73194011430181704730B5B8
:104C600004460D4629462046FFF7F0FF208940F014
:104C70000700208130BD2DE9F04104460D4616465F
:104C80001F46602D06D13B46012231462046FFF7E4
:104C90005AFE05E03B46012231462046FFF79DFEC5
:104CA00029462046FFF7D2FF208940F007002081E7
:104CB000BDE8F08130B50C4600210189C9B24FF63C
:104CC000FF7505EA0325154325432943018130BDBE
:104CD0002DE9F04105460E46174698460024434606
:104CE0003A4631462846FFF7E5FF2C894FF6F87023
:104CF000044044F007044FF68F70044044F0700401
:104D00002C81BDE8F081F0B504460D4616461F46DD
:104D10003B46324629462046FFF7CCFF208940F427
:104D200080402081F0BD0185828270470A460021C3
:104D300001884FF68F731940114301807047F0B519
:104D40000C4615461E460021002200230189028BD5
:104D5000038C4FF6F877394021434FF6FC473A4031
:104D600040F201173A434FF6DD773B404FF6FF77AD
:104D700007EA06172F433B43018102830384F0BDFA
:104D80000A460021018B4FF68F73194011430183AE
:104D900070470A460021018B48F6FF7319404FF611
:104DA000FF7303EA02231943018370470A46002177
:104DB000818B4FF68F7319401143818370470A46E8
:104DC0000021818B48F6FF7319404FF6FF7303EA09
:104DD000022319438183704721B1028842F0800287
:104DE000028004E002884FF67F731A400280704709
:104DF00021B1828842F00402828004E082884FF66A
:104E0000FB731A408280704721B1828842F0080209
:104E1000828004E082884FF6F7731A4082807047E0
:104E200021B1828842F00102828004E082884FF63C
:104E3000FE731A40828070470A460021018B4FF6AC
:104E4000F77319401143018370470A460021018B13
:104E50004FF2FF7319404FF6FF7303EA0223194321
:104E6000018370470A460021818B4FF6F773194082
:104E70001143818370470A460021818B4FF2FF73F3
:104E800019404FF6FF7303EA0223194381837047E9
:104E90000A460021018B4FF6FB7319401143018331
:104EA00070470A460021018B4FF6FF3319404FF639
:104EB000FF7303EA02231943018370470A46002166
:104EC000818B4FF6FB7319401143818370470A466B
:104ED0000021818B4FF6FF3319404FF6FF7303EA31
:104EE00002231943818370470A460021018B4FF644
:104EF0007F7319401143018370470A460021018BDB
:104F0000C1F30E014FF6FF7303EA02231943018335
:104F100070470A460021818B4FF67F731940114379
:104F2000818370470A460021818BC1F30E014FF641
:104F3000FF7303EA02231943818370470A46002165
:104F4000018C4FF6FD7319401143018470470A46E6
:104F50000021018C4FF6F77319401143018470470B
:104F60000A460021018C4FF6DF7319404FF6FF739C
:104F700003EA02131943018470470A460021018C99
:104F80004FF67F7319404FF6FF7303EA021319437C
:104F9000018470470A460021018C4FF6FF531940E7
:104FA0004FF6FF7303EA02231943018470470A4650
:104FB0000021018C4FF2FF7319404FF6FF7303EA93
:104FC00002231943018470470A460021018C4DF6E3
:104FD000FF7319404FF6FF7303EA0233194301844C
:104FE000704730B5002301248C40A3B2048C9C434D
:104FF0000484048C02FA01F5ADB22C43048430BD64
:1050000030B5002304248C40A3B2048C9C43048458
:10501000048C02FA01F5ADB22C43048430BD70B5A6
:105020000346002000241846183001258D40ACB2FC
:105030001D8CA5431D8409B1082909D100EB61002D
:10504000056825F0700505600568154305600EE0EC
:105050000D1FC5F34E052844056825F4E04505609D
:1050600005684FF6FF7606EA02263543056070BDF7
:1050700021B1028842F00202028004E002884FF669
:10508000FD731A400280704721B1028842F0040289
:10509000028004E002884FF6FB731A4002807047DA
:1050A00021B1828842F08002828004E082884FF63B
:1050B0007F731A408280704702884FF6F7731A4058
:1050C000028002880A430280704782884FF68F73FD
:1050D0001A40828082880A438280704702894FF694
:1050E000F8731A40028102890A43028170470289DB
:1050F0004FF67F731A40028102890A43028170478A
:105100008184704781857047818670470187704729
:1051100081877047A0F84010704702884FF6FF4320
:105120001A40028002880A43028070470146888E36
:1051300070470146088F70470146888F70470146C7
:10514000B1F8400070470146888C70470146088DD1
:10515000704702460020138A0B400BB1012000E08B
:1051600000207047CA430282704730B502460020D3
:1051700000230024158A05EA0103958905EA010444
:1051800013B10CB1012000E0002030BDCA430282FF
:1051900070470000002044490860091D0860091D8F
:1051A0000860091D086041483F4914310860704794
:1051B00000213D498279002A3AD00A4612680368E4
:1051C0009A430B461A600A1D126803689A430B1D26
:1051D0001A60027911440A6803681A430A60324A65
:1051E0000832126803689A432F4B08331A601A1D5D
:1051F000126803689A432C4B0C331A604279102AC8
:105200000ED11A1F126803681A43274B08331A601D
:105210001A1D126803681A43234B0C331A600DE001
:105220002149427911440A6803681A430A6005E07B
:10523000027911440A6803689A430A6070470021A2
:10524000016001710C214171002181717047164983
:10525000103109680143144A103211607047014649
:105260000020114A143212680A400AB1012000E0FD
:10527000002070470C491431086070470146002037
:105280000022094B1B6803EA0102074B14331B6819
:105290000B4013B10AB1012000E000207047024921
:1052A000143108607047000000040140FFFF0F0048
:1052B0000E49086070470D49486070470B49886087
:1052C00070474AF6AA200949086070474CF6CC405E
:1052D00006490860704701460020044AD2680A4027
:1052E0000AB1012000E000207047000000300040BB
:1052F00040EA01039B0703D009E008C9121F08C058
:10530000042AFAD203E011F8013B00F8013B521ED7
:10531000F9D27047D2B201E000F8012B491EFBD24E
:1053200070470022F6E710B513460A4604461946B0
:10533000FFF7F0FF204610BD421E12F8013F002B80
:10534000FBD111F8013B02F8013B002BF9D170476A
:1053500030B505462A460B4612F8010B13F8014BEF
:1053600008B1A042F8D01CB1002802D06D1CF1E7B2
:10537000284630BD421C10F8011B0029FBD1801AC1
:105380007047034611F8012B00F8012B002AF9D1D0
:105390001846704770B5064600F0ACFC0468054638
:1053A0000A220021304600F0FFFA2C6070BDF0B4F4
:1053B00080EA0102D40F4200B2EB410F02D2024652
:1053C000084611464A0042D0C30DDDB2C1F3C752B0
:1053D000AD1A202D35DAC1F3160141F4000204B1F3
:1053E0005242C5F1200602FA06F12A411044B3EBFD
:1053F000D05F23D0C4B1012DA0EBC35009DCF0BCB9
:105400004FF0004202EAC352DBB200F5000000F0A8
:105410000CBB400000F1807000EBC350A0F1807025
:1054200040EAD170490009E0490841EAC071A0EBA7
:10543000C35000F50000400800EBC350F0BC00F082
:10544000EBBA6142012202EB4101001BF6E7F0BC1E
:10545000704781F00041AAE780F00040A7E72DE9FE
:10546000FE4F804681EA0300C00F0C46009021F0F9
:10547000004123F00045B8EB0200A94105D24046A7
:10548000214690461C460B46024623F0004010433E
:1054900047D0270DC7F30A00C3F30A510290401A00
:1054A000019040286BDAC3F3130040F4801B00988E
:1054B000924620B10023D2EB030A63EB0B0B019859
:1054C0005946C0F14002504600F04DFA06460D46DE
:1054D00050465946019A00F055FA10EB0800614118
:1054E000002487EA115284EAE7731A4340D0009AF5
:1054F00062B3019A012A4FEA075215DC001B61EBE7
:1055000002014FF0004202EA0752CDE90042001CBE
:1055100041F5801132462B4600F0C4FA03B0BDE8D5
:10552000F08F40462146F9E7001B61EB0201001CA9
:1055300041F5801300185B412018A2F5001747EBD6
:10554000030140EAD570B6196D4111E06D084FEACC
:10555000360645EAC0754FEA0752001B61EB0201AF
:10556000001C41F5801149084FEA300000195141F3
:1055700032462B4603B0BDE8F04F00F084BA0098E5
:10558000012240000023D0EB020263EBE07300989D
:1055900021464FEAE074B8EB000061EB0401E9E753
:1055A00083F000435BE781F0004158E72DE9FE4FAF
:1055B00081EA030404F0004421F0004100944FF01C
:1055C000000B23F0004350EA01045ED052EA0304CA
:1055D0005BD0C3F30A54C1F30A552C44A4F2F3344C
:1055E0000194A0FB0254C1F3130141F48011C3F3F1
:1055F000130343F4801301FB024400FB034E840AAF
:10560000970A44EA815447EA8357A4FB0768029546
:105610008D0A05FB07854FEA932C04FB0C542705E4
:10562000029D4FEA065847EA1637B5EB08056EEBC0
:10563000070C870E920E47EA811742EA8312A7FBF6
:105640000201B6EB0B0164EB00042B0D43EA0C33B3
:105650005E1844EB1C50DA465146E7FB0201C5F3E5
:1056600013044FEA0B3343EA14534FEA0432019C0C
:1056700043EA0603A4F10C040294009CCDE900B4B3
:1056800000F010FA03B0BDE8F08F00200146F9E702
:105690002DE9F04D81EA030404F0004B21F00045B0
:1056A00014464FF0000A23F0004150EA050220D0D2
:1056B00054EA01021DD0C5F30A570246C5F313038D
:1056C000C1F31300C1F30A5640F4801543F480136C
:1056D000A7EB0608101BD64608F2FD3873EB050051
:1056E00002D308F1010801E092185B41B8F1000F04
:1056F00003DA00200146BDE8F08D00204FF4801150
:10570000064684460EE0171B73EB050705D3121BF4
:1057100063EB050306434CEA010C49084FEA3000ED
:1057200092185B4150EA0107EDD152EA030012D012
:1057300082EA040083EA0501084305D0101BAB414F
:1057400006D20122002306E000224FF0004302E0CF
:105750006FF0010253101AEB06004CEB085110EBEE
:105760000A0041EB0B01BDE8F04D00F08CB9C10F10
:1057700080EAE0700844CA079623002100F055B97A
:1057800096230022114600F050B90EB5C10F80EAF1
:10579000E0700844CA07002140F233438DE80E0050
:1057A0000A460B4600F07EF903B000BD00F000424F
:1057B00020F00040C10DC0F3160040F400007F2926
:1057C00001DA00207047962903DCC1F19601C84038
:1057D00001E096398840002AF4D04042704720F01A
:1057E0000040C10DC0F3160040F400007F2901DA2B
:1057F00000207047962903DCC1F19601C84070472C
:1058000096398840704700F0004230F000400AD0DE
:10581000C10D01F56071C0F3160042EA0151C208E2
:1058200040071143704700200146704730B5041E01
:1058300071F1000404DB4FF00044404264EB0101CD
:10584000141E73F1000405DB1C464FF00043524266
:1058500063EB04038B4208BF824230BD30B5041EA7
:1058600071F1000404DB4FF00044404264EB01019D
:10587000141E73F1000405DB1C464FF00043524236
:1058800063EB0403994208BF904230BD01F000432E
:1058900030B421F0004150EA010206D00A0DA2F511
:1058A0006072C1F31301002A02DC30BC0020704793
:1058B000440F44EAC104C100E01830BC00EBC25000
:1058C00000F0AAB8002801DBC0F10040002901DB8C
:1058D000C1F100418142704730B50B4601460020BE
:1058E0002022012409E021FA02F59D4205D303FAA2
:1058F00002F5491B04FA02F52844151EA2F1010223
:10590000F1DC30BD2DE9F05F0546002092469B4654
:1059100088460646814640241BE0284641464746C5
:10592000224600F037F953465A46C01A914110D327
:1059300011461846224600F016F82D1A67EB0108AA
:105940004F4622460120002100F00DF817EB000918
:105950004E41201EA4F10104DFDC484631462A46B0
:105960004346BDE8F09F202A04DB203A00FA02F10A
:10597000002070479140C2F1200320FA03F319433D
:1059800090407047202A06DBCB17203A41FA02F0FC
:1059900043EAE07306E041FA02F3D040C2F120028C
:1059A00091400843194670472DE9F04791460F464C
:1059B00080460446002614F8015B2DB100F0FAF889
:1059C0000068405DC007F6D12B2D02D02D2D18D0D8
:1059D000641E4A463946204600F0F0F827B139687F
:1059E000A14201D1C7F8008071054FF002040BD528
:1059F0004042002803DD00F07DF90460A007BDE807
:105A0000F08746F48066E4E70028F8DA00F072F9DF
:105A100004606FF00040F2E70029A8BF7047401C07
:105A2000490008BF20F00100704710B4B0FA80FCB4
:105A300000FA0CF050EA010404BF10BC704749B1F1
:105A4000CCF1200421FA04F411FA0CF118BF012161
:105A500021430843A3EB0C01CB1D4FEA00614FEA41
:105A6000102042BF002010BC704700EBC350104410
:105A70000029A4BF10BC7047401C490008BF20F09B
:105A8000010010BC704710B5141E73F1000408DA51
:105A9000401C41F1000192185B411A4301D120F0F2
:105AA000010010BD2DE9F04D92469B4611B1B1FAAF
:105AB00081F202E0B0FA80F220329046FFF753FF05
:105AC00004460F4640EA0A0041EA0B0153465A4693
:105AD000084313D0114653EA010019D0C8F140021F
:105AE000504600F057F805460E4650465946424685
:105AF000FFF739FF084305D0012004E0204639466E
:105B0000BDE8F08D0020054346EAE0762C4337439C
:105B10000A986305E40AA0EB08000022FD0A44EAA3
:105B200047540A3002D500200146E9E70105101963
:105B30006941DDE9084500196941BDE8F04DA2E77A
:105B4000C1F30A52C1F3130140F2FF3341F4801153
:105B50009A4202DA00200146704740F233439A42EB
:105B6000A2F2334202DC524200F014B8FFF7FBBE4F
:105B7000064C074D06E0E06840F0010394E807009A
:105B800098471034AC42F6D3FAF7D6FA8467000887
:105B9000A4670008202A04DB203A21FA02F0002141
:105BA000704721FA02F3D040C2F12002914008432D
:105BB0001946704700487047346700082DE9F05FC8
:105BC00082460078002715468B460AF10104B94643
:105BD000302801D09DB113E014F8010B012778287B
:105BE00003D0582801D045B10AE00DB1102D07D1DE
:105BF0000027102514F8010B02E0082500E00A2513
:105C00000026B0460EE005FB080005FB06F1012763
:105C100001EB10461FFA80F8B6F5803F00D3B94675
:105C200014F8010B294600F018F80028EBDABBF154
:105C3000000F05D00FB1641E00E05446CBF80040C1
:105C4000B9F1000F06D000F055F802210160C81E1E
:105C5000BDE8F09F48EA0640FAE73A2800D230381B
:105C600020F02002412A01D3A2F13700884201D35B
:105C70004FF0FF30704770B58C1810F8015B15F0CD
:105C8000070301D110F8013B2A1106D110F8012BAE
:105C900003E010F8016B01F8016B5B1EF9D12B07D3
:105CA00005D40023521E0DD401F8013BFAE710F889
:105CB000013BCB1A921C03E013F8015B01F8015B76
:105CC000521EF9D5A142D8D3002070BD0FB4084BA5
:105CD00010B504A902AA039800F0E2F8044602A94C
:105CE000002000F074FC204610BC5DF814FB00009E
:105CF000CF650008004870474402002002E008C851
:105D0000121F08C1002AFAD170477047002001E035
:105D100001C1121F002AFBD1704700002DE9FF5F6F
:105D200082B00021DDE90430020DDDF840B003430C
:105D300018D044F61050A2F2FF32424315141198C5
:105D400001281FD0A5EB0B00401C5FEA000A4FF0B2
:105D500000064E4FDFF83891B046504615D5CAF1CF
:105D6000000413E0119801244AA3012801D16FEA2D
:105D70000B010298119AC0E90031C0E9024206B055
:105D8000BDE8F09FCBF10000DFE704460021404A68
:105D9000491842EB0450CDE9001012E0E00707D0AB
:105DA00032463B4640464946FFF700FC804689465E
:105DB00032463B4610461946FFF7F8FB06460F46AB
:105DC0006410002CEAD1DDE90401DDE90023BAF119
:105DD000000F06DAFFF7EAFB42464B46FFF7E6FB09
:105DE00005E0FFF755FC42464B46FFF751FC0446E1
:105DF0000E460022284BFFF731FD03D84FF0FF304D
:105E0000014607E00022254B20463146FFF727FBDD
:105E1000FFF796FE102409E0002C0ADB0A2200237B
:105E2000FFF770FD039B30321A55641E50EA0102E1
:105E3000F2D1641C039AC4F111031444119A012A8B
:105E400003D0012208430DD10AE0084304D000200A
:105E50004FF0110B119072E7A3EB0B056D1E0DE0D7
:105E60005B4504DD4FF0000205F1010504E003DAB3
:105E70004FF00002A5F10105002AECD0029811991B
:105E8000C0E90231C0E9004579E700000000144094
:105E90000000F03F300000000000F0430000E03F51
:105EA0002DE9FF4F95B09B468946064600250FE237
:105EB000252877D100242746F84A0121059400E0DF
:105EC000044316F8013F203B01FA03F01042F7D1DA
:105ED00030782A2811D06FF02F033078A0F13002EB
:105EE000092A16D8059A44F0020402EB820203EB59
:105EF00042021044761C0590EFE759F8042B0592F6
:105F0000002A03DA504244F40054059044F002049D
:105F1000761C30782E2816D116F8010F44F00404B0
:105F20002A280DD06FF02F023078A0F13003092B12
:105F300009D807EB870302EB4303C718761CF3E786
:105F400059F8047B761C30786C280FD006DC4C287E
:105F500017D068280DD06A2814D104E0742810D016
:105F60007A280FD10DE044F400140AE044F48014C0
:105F700001E044F440147278824202D104F58014A6
:105F8000761C761C307866280BD013DC582877D026
:105F900009DC002875D04528F6D04628F4D04728DB
:105FA0001AD19DE118E0632835D0642879D065289E
:105FB00012D195E1702873D008DC6728F1D06928E8
:105FC0006FD06E280DD06F2806D1B5E073282CD085
:105FD000752875D0782874D05A46179990476D1C4B
:105FE00075E1C4F30250022809D003280DD0D9F876
:105FF000001004280DD00D6009F1040967E1D9F8FB
:106000000010EA17C1E90052F6E7D9F800100D8038
:10601000F2E70D70F0E719F8041B8DF8001000206E
:106020008DF80100EA46012003E059F804AB4FF077
:10603000FF3061074FF0000102D40DE008F10101CB
:106040008846B9420FDA8045F8DB1AF808100029B3
:10605000F4D108E008F1010188468142FADB1AF820
:1060600008100029F6D105985B46A0EB08072146E9
:106070003846179A00F094FA284400EB080507E028
:106080004DE029E10DE01AF8010B5A4617999047A7
:10609000B8F10108F7D25B4621463846179A13E15A
:1060A00042E00A220092C4F302524FF0000A022A90
:1060B00008D059F804CB032A4FEAEC710AD00DE05E
:1060C00029E02AE009F1070121F00702F2E802C104
:1060D000914609E00FFA8CFC4FEAEC71042A03D1D7
:1060E0004FFA8CFC4FEAEC71002907DA0A460021CE
:1060F000DCF1000C61EB02012D2202E0220504D547
:106100002B228DF80420012203E0E20701D0202297
:10611000F7E7904659E00A2102E010220DE0102135
:106120004FF0000A00910BE010224FF0000A44F0FB
:1061300004040827009203E008224FF0000A0092AE
:10614000C4F30252022A05D059F804CB0021032AD5
:1061500008D009E009F1070121F00702F2E802C1C5
:10616000914605E01FFA8CFC042A01D10CF0FF0CCB
:106170004FF00008220728D5702806D0009B83F036
:10618000100353EA0A0305D00EE040228DF80420E4
:10619000012208E05CEA010206D030228DF80420DA
:1061A0008DF8050002229046009B83F0080353EA15
:1061B0000A030AD15CEA010201D1620705D5302247
:1061C0008DF804204FF001087F1E582804D034A019
:1061D00003900EA802900DE036A0F9E75346604602
:1061E000009AFFF78FFB84460398825C0298401E5A
:1061F000029002705CEA0100F0D1029806A9081A28
:1062000000F1200A600702D524F4803400E0012761
:10621000574502DDA7EB0A0000E0002000EB0A0171
:10622000009005984144401A0590E00306D45B466F
:106230002146179A059800F0B3F90544002706E0B7
:1062400001A85A46C05D179990476D1C7F1C4745B1
:10625000F6DBE0030CD55B462146179A059800F063
:106260009FF9054404E030205A46179990476D1C69
:106270000099481E00900029F5DC08E00298029978
:106280005A460078491C0291179990476D1CBAF143
:106290000001AAF1010AF1DC65E100000928010012
:1062A000303132333435363738396162636465668C
:1062B000000000003031323334353637383941424E
:1062C000434445460000000000F058F90544761CA0
:1062D000307800287FF4ECAD19B02846BDE8F08F87
:1062E000620700D4062709F1070222F0070CFCE838
:1062F0000223E14603F000485FEA080C02D00FF2E7
:10630000702C0DE05FEA045C02D50FF2682C07E008
:106310005FEAC47C02D00FF2602C01E0AFF2700C97
:106320004FF0FF3823F00043CDF850C065280CD063
:1063300006DC452809D046281DD047283DD13DE040
:10634000662818D067287ED138E00021112F01DBA4
:10635000112000E0781CCDE9000106A90EA8FFF786
:10636000DDFCDDE90F010E9A03910021009207F197
:10637000010A04914DE04FF000400097CDE9011073
:1063800006A90EA8FFF7CAFCDDE90F0203920E9BD7
:1063900011990022DDF80CA00093049211B9791C28
:1063A00000EB010AB7EB0A0004D4C0F1FF3007F19B
:1063B000010A0490AAEB0700019044E0012F00DAE3
:1063C00001270021112F01DD112000E03846CDE921
:1063D000000106A90EA8FFF7A1FCDDE90F010E9A46
:1063E0000391002104910092BA4621070CD403992D
:1063F000514500DA8A46BAF1010F05DD009AAAF18B
:106400000101515C302908D0B84202DA10F1040FC2
:1064100006DA0121CDE9011015E0AAF10101E9E751
:10642000002805DC049901440491AAEB000102E074
:10643000411C514500DD8A460499401A401C0190D8
:106440004FF000400290200704D40198504501DB32
:10645000CDF8048000208DF84F0002980DF14F0711
:10646000B0F1004F25D02B200E9002984FF002087B
:1064700000280CDA404202902D200E9007E00A21FD
:106480000298FFF729FA3031029007F8011DB8F1A0
:106490000001A8F10108F2DC02980028EFD1791E72
:1064A0000E980870307800F0200040F0450007F8A2
:1064B000020D12A8C01B00F107081498007800B163
:1064C000012000EB0A01019801EBE07105984144BD
:1064D000401A401E0590E00306D45B462146179AF9
:1064E000059800F05DF805441498007818B15A46F4
:1064F000179990476D1CE00324D55B462146179AF7
:10650000059800F04DF805441CE00498002807DBCE
:10651000DDE90301884203DD0098405C179901E042
:10652000179930205A469047049805F10105401C00
:1065300004900198401E019004D12E205A461799CC
:1065400090476D1CBAF10001AAF1010ADDDC05E0FB
:1065500017F8010B5A46179990476D1CB8F10001C6
:10656000A8F10108F4DC5B462146179A0598ABE6D2
:106570002D0000002B000000200000002DE9F0415C
:10658000044600251E461746880404D405E0394613
:106590002020B0476D1C641EF9D52846BDE8F08167
:1065A0002DE9F041044600251E469046C80301D55A
:1065B000302700E02027880404D505E0414638460E
:1065C000B0476D1C641EF9D52846BDE8F0810A6805
:1065D000531C0B601070704710B5002821D0114B70
:1065E0000022001F196803E0814203D80A46496867
:1065F0000029F9D152B11368841A9C4204D1006871
:1066000018441060104602E0506000E0186039B194
:1066100002680B1A934203D10B681A44026049685E
:10662000416010BD3C020020F0B50B30154D20F04C
:1066300007010024144A0FE003688B420BD38B42FE
:1066400005D95E1A43184768C3E9006700E043684C
:10665000136002C004E0021D10680028ECD120463F
:10666000002802D1286808B10020F0BD064A07487A
:106670001060074A121A22F00702C0E90024012024
:106680002860D7E7400200203C0200209C04002044
:1066900098060020496E6E65722D5363616E3A3024
:1066A0005F30303030303030302D300000000000AE
:1066B0000000004040404040404040404141414196
:1066C00041404040404040404040404040404040C9
:1066D00040404005020202020202020202020202DD
:1066E000020202202020202020202020200202025E
:1066F00002020202909090909090101010101010D2
:1067000010101010101010101010101010100202A5
:106710000202020288888888888808080808080811
:1067200008080808080808080808080808080202F5
:1067300002024000B366000843757272656E7420F1
:10674000537465703A25642C205461726765742017
:10675000537465703A25642C205461726765742007
:1067600047726964733A25642C2041742053746520
:10677000703A252E32662C204F66667365743A2572
:1067800064000000A4670008000000204802000028
:10679000765C0008DC680008480200205008000011
:1067A0000C5D0008C172015A0A0F9AAA14117CA24A
:1067B0004A0428300802030406070809101B104089
:1067C0003139393A4D6F746F723A53537461727440
:1067D0003A4D312031300D0AC91A0B136F70192C44
:1067E00041646418DA32174C70656518EA30310D6F
:1067F00013486F6D651A5D496E76657EC9193D4C0B
:10680000696D69187931E80D50726F6772616D3A80
:106810004D494E542E1E53617665201379F914AB01
:1068200002EE220216F2BAAB01BD1C01B3720812CD
:10683000111D020B0A290912121D021937650912CE
:10684000131D02012037092C22A2C50611100B04CA
:1068500001010E1047BAAB02331412112038110196
:1068600002030405060708090A0B0C0D0E0FF019A8
:106870001C01E3192C12441C01A4EA100A16442935
:106880003A5519F13A9A323C01E42B0812021B01E5
:10689000484B12553C01A5FC08114A560F1BE53C1C
:1068A000081A66201B0F7809127717012099BAA5DC
:1068B0005A130A801D64EE0D0A0A140E10022808ED
:1068C0000BB80BB81C0D0A9312020419A3DABA29EB
:0C68D0009D290429A0C502040608000050
:0400000508000131BD
:00000001FF
